:03210000022103B6
:03215C0002215FFE
:05215F0012236C80FE5C
:0E216400AA83E58290000CF0A3EAF090000C34
:09217200E0FAA3E0FB7C007D0013
:0B217B00C3EC9AED9B50147E057F0022
:052186001EBEFF011F59
:0B218B00EE4F70F70CBC00E80D80E583
:012196002226
:0E219700E58290000EF090000EE0FA30E004B9
:0421A500D2A0800242
:0221A900C2A0D2
:0C21AB0090000EE0FA30E104D2A18002A6
:0221B700C2A1C3
:0C21B90090000EE0FA30E204D2A2800296
:0221C500C2A2B4
:0C21C70090000EE0FA30E304D2A3800286
:0221D300C2A3A5
:0C21D50090000EE0FA30E404D2A4800276
:0221E100C2A496
:0C21E30090000EE0FA30E504D2A5800266
:0221EF00C2A587
:0C21F10090000EE0FA30E604D2A6800256
:0221FD00C2A678
:0B21FF0090000EE0FA30E703D2A722A8
:03220A00C2A72246
:0E220D00E58290000FF0C297C29090000FE0A3
:0D221B00F5A0D291900005122164C291221D
:0E222800E582900010F0C297D290900010E076
:0D223600F5A0D291900005122164C2912202
:0E224300D295C294D29675823F12220D7582FA
:0E2251004012220D7582B812220D7582C01245
:0B225F00220D9000027401F0E4A3F0D7
:0E226A00900002E0FAA3E0FBC3EA9409EB64E3
:0C227800809480505B900004E4F0A3F020
:0E228400900004E0FAA3E0FBC3EA9440EB6490
:0E229200809480501B75820012222890000458
:0E22A000E0FAA3E0FB90000474012AF0E43B96
:0422AE00A3F080D247
:0E22B200900002E0FAA3E0FB74B82AFAF5826D
:0C22C00012220D900002E0FAA3E0FB9057
:0C22CC00000274012AF0E43BA3F08092B1
:0E22D800C295D29475823F12220D758240127B
:0C22E600220D7582B812220D7582C01204
:0B22F200220D9000027401F0E4A3F044
:0E22FD00900002E0FAA3E0FBC3EA9409EB6450
:0C230B00809480505B900004E4F0A3F08C
:0E231700900004E0FAA3E0FBC3EA9440EB64FC
:0E232500809480501B758200122228900004C4
:0E233300E0FAA3E0FB90000474012AF0E43B02
:04234100A3F080D2B3
:0E234500900002E0FAA3E0FB74B82AFAF582D9
:0C23530012220D900002E0FAA3E0FB90C3
:0C235F00000274012AF0E43BA3F080921D
:01236B00224F
:0D236C00122243D295C29475823F12220DB9
:0E23790090000A7401F0E4A3F0900008E4F074
:02238700A3F0C1
:0E238900900008E0FAA3E0FBC3EA9402EB64C4
:0E23970080948050DD900006747FF0E4A3F087
:0E23A500900006E0FAA3E0FBC3EA9440EB646C
:0823B30080948050030225F024
:0923BB0090000474BDF0E4A3F0ED
:0E23C400900004E0FAA3E0FBC3EA94BAEB64D5
:0823D20080948050030224D422
:0E23DA008A8212220D900006E0FAA3E0FB902A
:0723E8000002EAF0A3EBF094
:0E23EF00900006E0FAA3E0FBEA24F1FAEB34DA
:0E23FD00FFFB900002E0FCA3E0FDC3EC9AEDB4
:0E240B0064808BF063F08095F050030224B6DD
:0E2419008C8212220D90000AE0FAA3E0FB5420
:0E24270003A2E0CA13CA13A2E0CA13CA13CA62
:0A243500FBEA242BFCEB3426FD909B
:0E243F000006E0FEA3E0FF900002E0FFA3E035
:0E244D00F8EEC39FF825E025E0F82CFCE43DF6
:0E245B00FD900004E0F8A3E0F974BDC3982CD6
:0E246900FCE43DFD8C828D83E4936029EA241F
:0A2477002BFAEB3426FBEEC39FFEA8
:0E24810025E025E0FE2AFAE43BFB74BDC3987B
:0D248F002AF582E43BF583E493FAF582120E
:02249C002228F4
:0D249E00900002E0FAA3E0FB1ABAFF011B58
:0B24AB00900002EAF0A3EBF00223EF28
:0E24B600900032122164900004E0FAA3E0FBD3
:0524C4001ABAFF011B24
:0B24C900900004EAF0A3EBF00223C433
:0E24D4009007D012216490000474BDF0E4A3C0
:0124E200F009
:0E24E300900004E0FAA3E0FBC3EA94BAEB64B5
:0824F10080948050030225A92C
:0E24F9008A8212220D900006E0FAA3E0FB900A
:072507000002EAF0A3EBF073
:0E250E00900006E0FAA3E0FBEA24F1FAEB34B9
:0E251C00FFFB900002E0FCA3E0FDC3EC9AED93
:0E252A0064808BF063F08095F040568C821236
:0B253800220D900006E0FAA3E0FB90EB
:0E2543000002E0FBA3E0FCEAC39BFA25E025C2
:09255100E0242BFAE43426FB908F
:0E255A000004E0FCA3E0FD74BDC39C2AF582E2
:0D256800E43BF583E493FAF58212222890FB
:0C2575000002E0FAA3E0FB1ABAFF011B11
:0A258100900002EAF0A3EBF0808363
:0E258B00900032122164900004E0FAA3E0FBFD
:052599001ABAFF011B4E
:0B259E00900004EAF0A3EBF00224E33D
:0E25A90020B42990000AE0FAA3E0FBC3EA94F4
:0E25B70004EB64809480500D90000A74012A99
:0725C500F0E43BA3F08009E4
:0925CC0090000A7401F0E4A3F090
:0E25D500900006E0FAA3E0FBEA24F8FAEB34EB
:0D25E300FFFB900006EAF0A3EBF00223A539
:0E25F000900008E0FAA3E0FB4A700C75823FF1
:0925FE0012220DC295D294800A4C
:0A26070075823F12220DD295C29495
:0E261100900008E0FAA3E0FB90000874012A94
:08261F00F0E43BA3F002238963
:0E262B000000000000000000000000000000A1
:0E263900000000000000000000000000000093
:0E264700000000000000000000000000000085
:0E265500000000000000000000000000000077
:0E266300000000000000000000000000000069
:0E26710000000000000000000000000000005B
:0E267F00000000000000000000000000000F3E
:0E268D00F000000FF000000FF000000FF00052
:0E269B00000FF000000FF000000FF000000F25
:0E26A900F0000003C0000003C0000003C000EA
:0E26B7000003C0000003C0000003C0000003C9
:0E26C500C0000003C0000003C0000003C000FE
:0E26D3000003C0000003C0000003C0000003AD
:0E26E100C0000003C0000003C00000000000A5
:0E26EF000000000000000000000000000000DD
:0E26FD000000000000000000000000000000CF
:0E270B0000000000000000000000000000FFC1
:0E271900FF0000FFFF0000FFFF0000FFFF00B9
:0427270000000000AE
:0E272B000000000000000000000000000000A0
:0E273900000000000000000000000000000092
:0E274700000000000000000000000000000084
:0E275500000000000000000000000000000076
:0E276300000000000000000000000000000068
:0E27710000000000000000000000000000005A
:0E277F0000000000000000000000000000004C
:0E278D0000000000000000000000000000003E
:0E279B00000000000000000000000000000030
:0E27A900000000000000000000000000000022
:0E27B700000000000000000000000000000014
:0E27C500000000000000000000000000000006
:0E27D3000000000000000000000000000000F8
:0E27E1000000000000000000000000000000EA
:0E27EF000000000000000000000000000000DC
:0E27FD000000000000000000000000000000CE
:0E280B000000000000000000000000000000BF
:0E2819000000000000000000000000000000B1
:0428270000000000AD
:06213200E478FFF6D8FD81
:082110007900E94400601B7A2C
:052118000090282B7867
:03211D001175A099
:0A21200000E493F2A308B8000205E2
:08212A00A0D9F4DAF275A0FF60
:082138007800E84400600A7918
:032140000075A087
:0621430000E4F309D8FCE2
:082149007811E84400600C79F4
:0B21510001900000E4F0A3D8FCD9FAD4
:03210300758107DC
:0A210600122627E582600302215F24
:042627007582002296
:00000001FF
