:03210000022103B6
:10215C0002215F12236C80FEAA83E58290000EF0B0
:10216C00A3EAF090000EE0FAA3E0FB7C007D00C334
:10217C00EC9AED9B50147E057F001EBEFF011FEEF6
:10218C004F70F70CBC00E80D80E522E58290001042
:10219C00F0900010E0FA30E004D2A08002C2A090CF
:1021AC000010E0FA30E104D2A18002C2A19000102C
:1021BC00E0FA30E204D2A28002C2A2900010E0FA4F
:1021CC0030E304D2A38002C2A3900010E0FA30E402
:1021DC0004D2A48002C2A4900010E0FA30E504D22C
:1021EC00A58002C2A5900010E0FA30E604D2A680C9
:1021FC0002C2A6900010E0FA30E703D2A722C2A7D1
:10220C0022E582900011F0C297C290900011E0F587
:10221C00A0D291900005122164C29122E582900017
:10222C0012F0C297D290900012E0F5A0D2919000DB
:10223C0005122164C29122D295C294D29675823F26
:10224C0012220D75824012220D7582B812220D7564
:10225C0082C012220D9000027401F0E4A3F09000F1
:10226C0002E0FAA3E0FBC3EA9409EB64809480508B
:10227C005B900004E4F0A3F0900004E0FAA3E0FB10
:10228C00C3EA9440EB64809480501B758200122248
:10229C0028900004E0FAA3E0FB90000474012AF0FB
:1022AC00E43BA3F080D2900002E0FAA3E0FB74B808
:1022BC002AFAF58212220D900002E0FAA3E0FB90BC
:1022CC00000274012AF0E43BA3F08092C295D294F0
:1022DC0075823F12220D75824012220D7582B81242
:1022EC00220D7582C012220D9000027401F0E4A33D
:1022FC00F0900002E0FAA3E0FBC3EA9409EB6480DF
:10230C009480505B900004E4F0A3F0900004E0FA99
:10231C00A3E0FBC3EA9440EB64809480501B75826D
:10232C0000122228900004E0FAA3E0FB9000047451
:10233C00012AF0E43BA3F080D2900002E0FAA3E083
:10234C00FB74B82AFAF58212220D900002E0FAA36F
:10235C00E0FB90000274012AF0E43BA3F08092228F
:10236C00122243D295C29475823F12220D90000C1A
:10237C007403F0E4A3F075823F12220DD295C2943F
:10238C0090000AE4F0A3F090000AE0FAA3E0FBC38B
:10239C00EA9402EB6480948040030225FC900006D2
:1023AC00747FF0E4A3F0900006E0FAA3E0FBC3EA2C
:1023BC009440EB6480948050030225D19000047407
:1023CC00BDF0E4A3F0900004E0FAA3E0FBC3EA94B0
:1023DC00BAEB6480948050030224E18A8212220DAD
:1023EC00900006E0FAA3E0FB900002EAF0A3EBF009
:1023FC00900006E0FAA3E0FBEA24F1FAEB34FFFBD1
:10240C00900002E0FCA3E0FDC3EC9AED64808BF03D
:10241C0063F08095F050030224C38C8212220D903D
:10242C00000CE0FAA3E0FB5403A2E0CA13CA13A207
:10243C00E0CA13CA13CAFBEA2497FCEB3427FD90BD
:10244C000006E0FEA3E0FF900002E0FFA3E0F8EE40
:10245C00C39FF825E025E0F82CFCE43DFD9000043A
:10246C00E0F8A3E0F974BDC3982CFCE43DFD8C822C
:10247C008D83E4936029EA2497FAEB3427FBEEC3AF
:10248C009FFE25E025E0FE2AFAE43BFB74BDC398D1
:10249C002AF582E43BF583E493FAF5821222289024
:1024AC000002E0FAA3E0FB1ABAFF011B900002EA5B
:1024BC00F0A3EBF00223FC90003212216490000494
:1024CC00E0FAA3E0FB1ABAFF011B900004EAF0A3A8
:1024DC00EBF00223D19007D012216490000474BD5C
:1024EC00F0E4A3F0900004E0FAA3E0FBC3EA94BA92
:1024FC00EB6480948050030225B68A8212220D90E0
:10250C000006E0FAA3E0FB900002EAF0A3EBF090E7
:10251C000006E0FAA3E0FBEA24F1FAEB34FFFB90AF
:10252C000002E0FCA3E0FDC3EC9AED64808BF06349
:10253C00F08095F040568C8212220D900006E0FA45
:10254C00A3E0FB900002E0FBA3E0FCEAC39BFA25AE
:10255C00E025E02497FAE43427FB900004E0FCA388
:10256C00E0FD74BDC39C2AF582E43BF583E493FA49
:10257C00F582122228900002E0FAA3E0FB1ABAFFBF
:10258C00011B900002EAF0A3EBF080839000321262
:10259C002164900004E0FAA3E0FB1ABAFF011B903F
:1025AC000004EAF0A3EBF00224F0900006E0FAA39A
:1025BC00E0FBEA24F8FAEB34FFFB900006EAF0A308
:1025CC00EBF00223B290000AE0FAA3E0FB4A700A97
:1025DC0075823F12220DC295D29490000AE0FAA3A4
:1025EC00E0FB90000A74012AF0E43BA3F002239371
:1025FC00900004E4F0A3F0900004E0FAA3E0FBC325
:10260C00EA9410EB6480948040030226AD900002A3
:10261C00E4F0A3F0900002E0FAA3E0FBC3EA940418
:10262C00EB648094805064900004E0FCA3E0FDCC4B
:10263C0025E0CC33CC25E0CC33FDEC2413FEED347B
:10264C0000FFEA2EFEEB3FFF90000CE0F8A3E0F950
:10265C005403A2E0C813C813A2E0C813C813C8F9E6
:10266C00E82497F8E93427F9EC28FCED39FDEA2C3D
:10267C00F582EB3DF583E493FC8E828F83F0900022
:10268C000274012AF0E43BA3F08089900004E0FA84
:10269C00A3E0FB90000474012AF0E43BA3F00226B3
:1026AC000390000474BDF0E4A3F0900008E4F0A3E0
:1026BC00F0900004E0FAA3E0FBC3EA94BAEB648068
:1026CC00948050030223798A8212220D90000274A6
:1026DC0040F0E4A3F0900006740FF0E4A3F0900037
:1026EC0002E0FAA3E0FBC3744F9A74808BF063F0A2
:1026FC008095F040618A8212220D900006E0FAA3C8
:10270C00E0FBCA25E0CA33CA25E0CA33FBEA24132E
:10271C00FAEB3400FB900008E0FCA3E0FDEC2AF59A
:10272C0082ED3BF583E0FAF582122228900002E05C
:10273C00FAA3E0FB90000274012AF0E43BA3F090B2
:10274C000006E0FAA3E0FB1ABAFF011B900006EAB0
:10275C00F0A3EBF08088900032122164900004E02A
:10276C00FAA3E0FB1ABAFF011B900004EAF0A3EBFA
:10277C00F0900008E0FAA3E0FB90000874012AF046
:07278C00E43BA3F00226BDAF
:102797000000000000000000000000000000000032
:1027A7000000000000000000000000000000000022
:1027B7000000000000000000000000000000000012
:1027C7000000000000000000000000000000000002
:1027D70000000000000000000000000000000000F2
:1027E70000000000000000000000000000000000E2
:1027F700000FF000000FF000000FF000000FF000D6
:10280700000FF000000FF000000FF000000FF000C5
:102817000003C0000003C0000003C0000003C000A5
:102827000003C0000003C0000003C0000003C00095
:102837000003C0000003C0000003C0000003C00085
:102847000003C0000003C0000003C0000003C00075
:102857000000000000000000000000000000000071
:102867000000000000000000000000000000000061
:1028770000000000000000000000000000FFFF0053
:1028870000FFFF0000FFFF0000FFFF000000000047
:102897000F0F000000000000000000000000000013
:1028A7000000000000000000000000000000000021
:1028B7000000000000000000000000000000000011
:1028C7000000000000000000000000000000FFFF03
:1028D70000000000000000000000000000000000F1
:1028E70000000000000000000000000000000000E1
:1028F70000000000000000000000000000000000D1
:1029070000000000000000000000000000000000C0
:06213200E478FFF6D8FD81
:102110007940E94400601B7A019028D7781375A0B4
:1021200000E493F2A308B8000205A0D9F4DAF2752E
:02213000A0FF0E
:102138007800E84400600A790075A000E4F309D843
:10214800FC7813E84400600C7901900000E4F0A3E7
:04215800D8FCD9FADC
:0D210300758107122793E582600302215FBA
:042793007582002229
:00000001FF
