:10005F00AA83E582900000F0A3EAF0900000E0FA96
:10006F00A3E0FBBA0005BB0002800F1ABAFF011B09
:10007F00900000EAF0A3EBF080E9900000EAF0A313
:10008F00EBF022AA83E582900002F0A3EAF0900041
:10009F0002E0FAA3E0FBBA0005BB0002801D90004E
:1000AF0070C002C00312005FD003D0021ABAFF0162
:1000BF001B900002EAF0A3EBF080DB900002EAF065
:1000CF00A3EBF022E582900004F0900004E0FABA6E
:1000DF00000280129003E8C002120092D0021A9020
:1000EF000004EAF080E9900004EAF022D292D29361
:1000FF002290000112005FD29390000112005FC2A4
:10010F009322C293D29290000112005FD29390007B
:10011F000112005FC29290000112005FC29322C2CF
:10012F009390000112005FC29290000112005FD203
:10013F009390000112005FD29222E582900005F0A9
:10014F007A00BA0800501D900005E0FB339292C070
:10015F0002C003120100D003D002EB2BFB9000056D
:10016F00F00A80DED29222900006E4F0D2927A005A
:10017F00BA08005035900001C00212005FD002D2C1
:10018F0093900001C00212005FD002900006E0259C
:10019F00E0FB900006F0900006E0FBE4A29233FC37
:1001AF009000064BF0C2930A80C6900006E0F582DD
:1001BF0022C292120100D29222E582900009F0121F
:1001CF000111900008E025E0FA4302A08A82120193
:1001DF00491201C0900009E0FAF58212014912019B
:1001EF00C0900007E0FAF5821201491201C0120116
:1001FF002E900005020092E58290000BF012011183
:10020F0090000AE025E0FA74A04AFBF582C00212C2
:10021F000149D002C0021201C0D00290000BE0FBD6
:10022F00F582C002120149D002C0021201C0D002F1
:10023F00C002120111D0024302A18A821201491297
:10024F0001C0120176AA82C002120271D002C0024E
:10025F0012012ED00290000AC00212005FD0028A53
:10026F008222D292120100D29322120111D2921243
:10027F000100D292120100D292120100D292120109
:10028F0000D292120100D292120100D292120100FA
:10029F00D292120100D29212010012011102012E0C
:1002AF0043A70775A61E75A6E12275A61E75A6E1C2
:1002BF0022AA83E58290000CF0A3EAF090000CE0F4
:1002CF00FAA3E0FB7C007D00C3EC9AED9B50147EFB
:1002DF00057F001EBEFF011FEE4F70F70CBC00E83C
:1002EF000D80E522E58290000EF0C295C297C29074
:1002FF0090000EE0F5A0D2919000051202C0C291BD
:10030F00D29522E58290000FF0C295C297D29090BD
:10031F00000FE0F5A0D2919000051202C0C291D259
:10032F009522E582900010F0C294C297C29090007F
:10033F0010E0F5A0D2919000051202C0C291D294A4
:10034F0022E582900011F0C294C297D290900011D2
:10035F00E0F5A0D2919000051202C0C291D2942272
:10036F00D29675823F1202F37582401202F37582A4
:10037F00B81202F37582C01202F37A017B00C3EA4E
:10038F009409EB64809480503D7C407D0075820021
:10039F00C002C003C004C005120312D005D004D0A0
:1003AF0003D0021CBCFF011DEC4D70E18A0474B830
:1003BF002CFCF582C002C0031202F3D003D0020A54
:1003CF00BA00BB0B80B875823F12033175824012A1
:1003DF0003317582B81203317582C01203317A016D
:1003EF007B00C3EA9409EB64809480503D7C407D90
:1003FF0000758200C002C003C004C005120350D0B4
:10040F0005D004D003D0021CBCFF011DEC4D70E1E0
:10041F008A0474B82CFCF582C002C003120331D0D9
:10042F0003D0020ABA00BB0B80B822D29675823F66
:10043F001202F37582401202F37582B81202F3753D
:10044F0082C01202F375823F12033175824012038C
:10045F00317582B81203317582C002033175823F44
:10046F001202F37582BB1202F37582631202F375E7
:10047F0082C01202F37582FF12031275828112037A
:10048F00127582811203127582F312031275821094
:10049F001203127582F01203127582001203127585
:1004AF0082FF120312758211120312758211120349
:1004BF00127582111203127582FF120312758200D8
:1004CF001203127582FF1203127582021203127544
:1004DF00820412031275820812031275820412032A
:1004EF00127582021203127582FF120312758200B7
:1004FF001203127582FF1203127582911203127585
:10050F0082911203127582911203127582001203E7
:10051F001275820012031275820012031275823F48
:10052F001203317582BB120331758240120331758C
:10053F0082C0120331758218120350758224120380
:10054F005075824212035075828112035075828159
:10055F001203507582421203507582241203507594
:10056F00821812035075820012035075823F1203D6
:10057F00507582401203507582801203507582802D
:10058F0012035075824012035075823F120350754B
:10059F0082001203507582FF12035075829112036D
:1005AF00507582911203507582911203507582001B
:1005BF001203507582FF1203507582191203507582
:1005CF00822912035075824912035075828F0203DC
:1005DF0050AA83E582900012F0A3EAF0900014E491
:1005EF00F0A3F0900016E4F0A3F0900012E0FAA34D
:1005FF00E0FB90031D740AF0E4A3F08A828B83C0A2
:10060F0002C00312342CAC82AD83D003D00290030E
:10061F0027740AF0E4A3F08A828B83C004C005120A
:10062F003533AA82AB83D005D004EC4D7007900010
:10063F0014E4F0A3F0EA4B7007900016E4F0A3F077
:10064F00BC010CBD00099000147404F0E4A3F0BACF
:10065F00010CBB00099000167404F0E4A3F0BC0277
:10066F000CBD00099000147408F0E4A3F0BA020C5A
:10067F00BB00099000167408F0E4A3F0BC030CBD96
:10068F000009900014740CF0E4A3F0BA030CBB0043
:10069F0009900016740CF0E4A3F0BC040CBD000923
:1006AF009000147410F0E4A3F0BA040CBB0009908E
:1006BF0000167410F0E4A3F0BC050CBD0009900007
:1006CF00147414F0E4A3F0BA050CBB0009900016E3
:1006DF007414F0E4A3F0BC060CBD00099000147470
:1006EF0018F0E4A3F0BA060CBB00099000167418BA
:1006FF00F0E4A3F0BC070CBD0009900014741CF0CB
:10070F00E4A3F0BA070CBB0009900016741CF0E4C8
:10071F00A3F0BC080CBD00099000147420F0E4A3F2
:10072F00F0BA080CBB00099000167420F0E4A3F097
:10073F00BC090CBD00099000147424F0E4A3F0BAB6
:10074F00090CBB00099000167424F0E4A3F0758225
:10075F003F1202F37582BD1202F37582601202F32B
:10076F007582C01202F375829F1203127582911265
:10077F0003127582911203127582F11203127582A0
:10078F00001203127582FF12031275828112031277
:10079F007582811203127582C312031275820012C1
:1007AF0003127582181203127582241203127582B6
:1007BF004212031275828112031275828112031283
:1007CF007582421203127582241203127582181257
:1007DF0003127582001203127582FF1203127582C3
:1007EF00191203127582291203127582491203120C
:1007FF0075828F1203127582001203127582FF1217
:10080F00031275829112031275829112031275826F
:10081F00911203127582001203127582BD120331F9
:10082F007582401203317582C012033175826612D0
:10083F0003507582661203507582661203507582DB
:10084F0066120350758266120350758200120350B0
:10085F00758200120350900014E0FAA3E0FB7C00B5
:10086F007D00C3EC9404ED64809480502C8A06ECD8
:10087F00FF2E25E0FE90372193CEA393FF8E82C0EB
:10088F0002C003C004C005120350D005D004D0032A
:10089F00D0020CBC00CC0D80C975820012035090A1
:1008AF000016E0FAA3E0FB7C007D00C3EC9404ED9E
:1008BF0064809480502C8A06ECFF2E25E0FE903742
:1008CF002193CEA393FF8E82C002C003C004C00544
:1008DF00120350D005D004D003D0020CBC00CC0DB5
:1008EF0080C92290001AE4F0A3F075823F1202F340
:1008FF007582B81202F37582401202F37582C0122C
:10090F0002F37582FF120312758281120312758230
:10091F00811203127582F3120312758210120312E1
:10092F007582F01203127582001203127582FF1284
:10093F00031275821112031275821112031275823E
:10094F00111203127582FF12031275820012031225
:10095F007582FF120312758202120312758204123E
:10096F000312758208120312758204120312758224
:10097F00021203127582FF12031275820012031204
:10098F007582FF12031275829112031275829112F2
:10099F00031275829112031275820012031275826F
:1009AF00001203127582001203127582FF120312D6
:1009BF0075821112031275821112031275821112B0
:1009CF0003127582FF1203127582001203127582D1
:1009DF00FF12031275821912031275822912031264
:1009EF0075824912031275828F12031275820012DB
:1009FF0003127582FF120312758291120312758210
:100A0F009112031275829112031275820012031252
:100A1F007582FF120312758202120312758204127D
:100A2F000312758208120312758210120312758257
:100A3F00201203127582401203127582FF120312E5
:100A4F007582001203127582FF1203127582111242
:100A5F00031275821112031275821112031275821D
:100A6F00FF12031275820012031275823F1202F3F6
:100A7F007582BA1202F37582401202F37582C012A8
:100A8F0002F37582FF1203127582FF120312758231
:100A9F00DB120312758299120312758299120312D7
:100AAF00758281120312758281120312758281126F
:100ABF0003127582C31203127582E7120312758235
:100ACF00FF12031275823F1202F37582BA1202F3FC
:100ADF007582501202F37582C01202F375829F1253
:100AEF00031275829112031275829112031275828D
:100AFF00F11203127582001203127582FF12031294
:100B0F007582021203127582041203127582081283
:100B1F00031275821012031275822012031275824E
:100B2F00401203127582FF12031275820012031214
:100B3F007582FF1203127582111203127582111240
:100B4F0003127582111203127582FF12031275823E
:100B5F00001203127582FF1203127582081203121C
:100B6F00758224120312758242120312758281124A
:100B7F0003127582001203127582FF12031275821F
:100B8F009112031275829112031275829112031240
:100B9F0075820012031275823F1202F37582BD1225
:100BAF0002F37582501202F37582C01202F375823E
:100BBF00FF12031275821912031275822912031282
:100BCF0075824912031275828F12031275820012F9
:100BDF0003127582FF1203127582111203127582AE
:100BEF00111203127582111203127582FF12031272
:100BFF007582001203127582FF1203127582811221
:100C0F0003127582811203127582C3120312758249
:100C1F00001203127582FF1203127582FF12031264
:100C2F007582001203127582FF120312758202126F
:100C3F000312758204120312758208120312758251
:100C4F0010120312758220120312758240120312C2
:100C5F007582FF1203127582001203127582FF1242
:100C6F00031275828112031275828112031275822B
:100C7F00F31203127582101203127582F01203120F
:100C8F0075820012031220B41790001AE0FAA3E045
:100C9F00FB4A700C9000187401F0E4A3F0020E47A9
:100CAF00309203020D6D90001A7401F0E4A3F075F9
:100CBF00823F1202F37582BA1202F375824012025A
:100CCF00F37582C01202F37A007B00C3EA940FEB34
:100CDF006480948050288A0474402CFCF582C002F2
:100CEF00C0031202F3D003D002758200C002C0030A
:100CFF00120312D003D0020ABA00D00B80CD90039A
:100D0F00E81202C075823F1202F37582BD1202F320
:100D1F007582401202F37582C01202F37582FF12C0
:100D2F0003127582FF1203127582DB120312758292
:100D3F00991203127582991203127582811203128E
:100D4F007582811203127582811203127582C3128A
:100D5F0003127582E71203127582FF12031220B479
:100D6F001890001AE0FAA3E0FBBA010DBB000A903D
:100D7F000018E4F0A3F0020E4730B503020C959073
:100D8F00001AE4F0A3F075823F1202F37582BD12D0
:100D9F0002F37582401202F37582C01202F37A00D9
:100DAF007B00C3EA940FEB6480948050288A04740C
:100DBF00402CFCF582C002C0031202F3D003D00214
:100DCF00758200C002C003120312D003D0020ABA08
:100DDF0000D00B80CD9003E81202C075823F120243
:100DEF00F37582BA1202F37582401202F37582C054
:100DFF001202F37582FF1203127582FF120312752E
:100E0F0082DB1203127582991203127582991203F3
:100E1F0012758281120312758281120312758281FB
:100E2F001203127582C31203127582E71203127531
:100E3F0082FF120312020C95900018E0FAA3E08AC9
:100E4F0082F5832212036F7582691202F37582BBDA
:100E5F001202F37582C01202F37582FF120312752C
:100E6F0082991203127582991203127582FF12036F
:100E7F00127582001203127582FF1203127582819E
:100E8F001203127582811203127582FF12031275FB
:100E9F00820012031275828F120312758291120350
:100EAF00127582911203127582F11203127582006C
:100EBF001203127582001203127582FF120312754C
:100ECF0082FF120312758200120312758240120301
:100EDF00317582BB1203317582001203317582FFA7
:100EEF00120350758299120350758299120350752F
:100EFF0082991203507582FF1203507582001203FC
:100F0F00507582FF120350758211120350758211B2
:100F1F001203507582111203507582FF1203507520
:100F2F00820012035075829F120350758291120333
:100F3F00507582911203507582F112035075820021
:100F4F001203507582FF1203507582911203507570
:100F5F008291120350758291120350758200120311
:100F6F00507582FF12035075828112035075828172
:100F7F0012035075824212035075823C1203507552
:100F8F00820012035075823F1202F37582BD120266
:100F9F00F37582631202F37582C01202F37582FF3A
:100FAF001203127582811203127582811203127558
:100FBF0082F31203127582101203127582F012035C
:100FCF00127582001203127582FF120312758211BD
:100FDF001203127582111203127582111203127508
:100FEF0082FF1203127582001203127582FF120321
:100FFF00127582021203127582041203127582088F
:10100F0012031275820412031275820212031275F3
:10101F0082FF1203127582001203127582FF1203F0
:10102F0012758291120312758291120312758291B9
:10103F0012031275820012031275820012031275C9
:10104F00820012031275823F1203317582BD1203A3
:10105F00317582401203317582C01203317582FFE0
:10106F0012035075821112035075821112035075BD
:10107F0082111203507582FF120350758200120302
:10108F00507582FF12035075821912035075822911
:10109F0012035075824912035075828F12035075D7
:1010AF0082001203507582FF120350758291120352
:1010BF005075829112035075829112035075820000
:1010CF001203507582FF120350758202120350757E
:1010DF008204120350758208120350758210120396
:1010EF00507582201203507582401203507582FF93
:1010FF001203507582001203507582FF1203507550
:10110F00821112035075821112035075821112034E
:10111F00507582FF12035075820012035075823F83
:10112F001202F37582BF1202F37582401202F37539
:10113F0082C01202F37582FF12031275821112031D
:10114F00127582111203127582111203127582FF2A
:10115F001203127582001203127582FF12031275A9
:10116F00820812031275822412031275824212032F
:10117F001275828112031275820012031275829FFB
:10118F001203127582911203127582911203127556
:10119F0082F11203127582001203127582FF12037D
:1011AF00127582181203127582181203127582FFBC
:1011BF001203127582001203127582FF1203127549
:1011CF0082FF12031275820012031275820312033B
:1011DF00127582031203127582FF1203127582FFBA
:1011EF001203127582031203127582031203127512
:1011FF00820012031275823F1203317582BF1203F0
:10120F003175825A1203317582C01203317582FF14
:10121F0012035075821912035075822912035075EB
:10122F00824912035075828F120350758200120388
:10123F00507582FF1203507582FF120350758200A2
:10124F001203507582FF120350758281120350757D
:10125F0082811203507582C31203507582001203EC
:10126F00507582FF12035075821812035075821841
:10127F001203507582FF12035075820012035075CE
:10128F0082FF1203507582111203507582111203DF
:10129F00507582111203507582FF12035075820030
:1012AF001203507582FF1203507582191203507585
:1012BF00822912035075824912035075828F1203CF
:1012CF00507582001203507582FF12035075828190
:1012DF0012035075828112035075824212035075AA
:1012EF00823C12035090CA001202C090CA00020240
:1012FF00C0E58290001CF090001DE4F0A3F0900078
:10130F001FE4F0A3F090001CE0FAC2D575F00AEAD2
:10131F0030E704B2D5F4048430D502F404FBA2D52F
:10132F0095E0FC75F00AEAC2D530E704D2D5F40493
:10133F0084E5F030D502F404FA3395E0FDEB4C7000
:10134F000790001DE4F0A3F0EA4D700790001FE432
:10135F00F0A3F0BB010CBC000990001D7404F0E475
:10136F00A3F0BA010CBD000990001F7404F0E4A3B0
:10137F00F0BB020CBC000990001D7408F0E4A3F050
:10138F00BA020CBD000990001F7408F0E4A3F0BB73
:10139F00030CBC000990001D740CF0E4A3F0BA0319
:1013AF000CBD000990001F740CF0E4A3F0BB040CFB
:1013BF00BC000990001D7410F0E4A3F0BA040CBD3A
:1013CF00000990001F7410F0E4A3F0BB050CBC00E3
:1013DF000990001D7414F0E4A3F0BA050CBD0009C8
:1013EF0090001F7414F0E4A3F0BB060CBC0009902E
:1013FF00001D7418F0E4A3F0BA060CBD00099000AC
:10140F001F7418F0E4A3F0BB070CBC000990001D7B
:10141F00741CF0E4A3F0BA070CBD000990001F7410
:10142F001CF0E4A3F0BB080CBC000990001D742055
:10143F00F0E4A3F0BA080CBD000990001F7420F06F
:10144F00E4A3F0BB090CBC000990001D7424F0E468
:10145F00A3F0BA090CBD000990001F7424F0E4A397
:10146F00F075823F1202F37582BF1202F375824547
:10147F001202F37582C01202F37582FF1203127506
:10148F0082181203127582181203127582FF12034B
:10149F00127582001203127582FF1203127582FFFA
:1014AF001203127582001203127582FF1203127556
:1014BF0082811203127582811203127582F3120355
:1014CF00127582101203127582F0120312758200C8
:1014DF001203127582FF120312758218120312750E
:1014EF0082181203127582FF120312758200120303
:1014FF001275829F120312758291120312758291D7
:10150F001203127582F11203127582001203127503
:10151F0082FF1203127582811203127582811203E8
:10152F00127582C31203127582001203127582188C
:10153F00120312758224120312758242120312755E
:10154F008281120312758281120312758242120375
:10155F0012758224120312758218120312758200FB
:10156F001203127582FF120312758219120312757C
:10157F00822912031275824912031275828F120388
:10158F00127582001203127582FF12031275829177
:10159F001203127582911203127582911203127542
:1015AF0082001203127582BD12033175824012033D
:1015BF00317582C0120331758266120350758266CF
:1015CF0012035075826612035075826612035075AE
:1015DF008266120350758200120350758200120347
:1015EF005090001DE0FAA3E0FB7C007D00C3EC945B
:1015FF0004ED64809480502C8A06ECFF2E25E0FECB
:10160F0090372193CEA393FF8E82C002C003C004F4
:10161F00C005120350D005D004D003D0020CBC007B
:10162F00CC0D80C975820012035090001FE0FAA301
:10163F00E0FB7C007D00C3EC9404ED64809480504B
:10164F002C8A06ECFF2E25E0FE90372193CEA39334
:10165F00FF8E82C002C003C004C005120350D00524
:0E166F00D004D003D0020CBC00CC0D80C922E8
:1035E1003C00420042003C003C00240042007E00BE
:1035F1003C00420042003C003C00240042007E00AE
:10360100F000F000F000F0000000000000000000F9
:103611000000000000000000F000F000F000F000E9
:10362100FF00FF00FF00FF00FF00FF00FF00FF00A1
:103631003C002400FF00A500FF0024003C00000026
:1036410000000000EE00EE007700770000000000AF
:103651000C003C003C0030000C003C003C00300001
:103661000C003C00FC00E800780060000000000055
:103671000C003C003E0016001F0007000000000087
:103681000000000006001E0017003F003C00300053
:1036910000000000E000F80068007C003C00300001
:1036A100000070009E00FE00FF009F0070000000FF
:1036B1003C005A005A007E003C003C003C003000B7
:1036C10000000E00F900FF007F0079000E000000ED
:1036D1000C003C003C003C007E005A005A003C00BB
:1036E100000000002E00EE00F7003700000000008F
:1036F100180018003C0030000C003C003C00300079
:1037010000000000EC00EF007700740000000000F2
:103711000C003C003C0030000C003C00180018007C
:10372100FF0081008100FF000000FF00FF0000009A
:10373100F100910091008F00910091009100FF0034
:103741000F0008000800FF008F0091009100F100B8
:10375100FF0099009900F900110011001100FF000C
:10376100FF0099009900FF001F0091009100FF00E8
:03000000020003F8
:03005C0002167D0C
:10167D001216B280FE438E0C758920758DFD7598FE
:10168D0050D28E90000022E5829002F7F09002F782
:10169D00E0F59910990280FB22E59830E0FBC298A5
:1016AD00AA998A8222900300E4F0A3F0900302E449
:1016BD00F0A3F0120E5312036F7A007B00C3EA946D
:1016CD0064EB64809480502C8A04EBCC25E0CC3301
:1016DD00FDEC2423F582ED3400F583E4F0A3F0EC6A
:1016ED0024EBF582ED3400F583E4F0A3F00ABA00A3
:1016FD00CC0B80C97A007B00C3EA9405EB6480941F
:10170D008050658A04EBCC25E0CC33FDEC24B7F595
:10171D0082ED3401F583E4F0A3F0EC24C1F582ED04
:10172D003401F583E4F0A3F0EC24CBF582ED340124
:10173D00F583E4F0A3F0EC24D5F582ED3401F583C7
:10174D00E4F0A3F0EC24DFF582ED3401F583E4F051
:10175D00A3F0EC24E9F582ED3401F583E4F0A3F078
:10176D000ABA00010B0217057A007B00C3EA941038
:10177D00EB64809480504A8A04EBC454F0CCC4CC02
:10178D006CCC54F0CC6CFDEC24F3FCED3401FD7EFF
:10179D00007F00C3EE9408EF64809480501C8E008F
:1017AD00EFC825E0C833F9E82CF582E93DF583E46F
:1017BD00F0A3F00EBE00DC0F80D90ABA00AE0B808C
:1017CD00AB1208F2AA82AB83C002C00312036FD022
:1017DD0003D002BA0105BB000280030219E4900197
:1017ED00B37401F0E4A3F09000217403F0E4A3F0CE
:1017FD009000EBE4F0A3F09000EDE4F0A3F0900086
:10180D00EFE4F0A3F09000237402F0A3E4F0900055
:10181D00257401F0A3E4F0900027F0A3F09001F3FC
:10182D0074DBF0A3E4F090020374DBF0A3E4F0901A
:10183D00021374DBF0A3E4F0C002C0031227BFD083
:10184D0003D002C002C003122D54D003D002900366
:10185D0000E0FCA3E0FD7E007F00C3EE9410EF647A
:10186D008094805050C002C003C004C005C006C0A3
:10187D00071233CCA882A983D007D006D005D00497
:10188D00D003D002900014C002C003C004C005C034
:10189D0006C007C000C0011202C0D001D000D007A1
:1018AD00D006D005D004D003D002E84970070EBE93
:1018BD0000A80F80A5C002C003C004C0051233CC20
:1018CD00D005D004D003D002C002C003C004C005AF
:1018DD00123016AE82AF83D005D004D003D002BE35
:1018ED000223BF00200CBC00010DC002C003C004C8
:1018FD00C005C006C0071227BFD007D006D005D03F
:10190D0004D003D002BEFF5ABFFF57C002C003C0B0
:10191D0004C00512036FD005D004D003D002C0025D
:10192D00C003C004C00512046CD005D004D003D090
:10193D00028C828D83C002C0031205E0D003D00259
:10194D00900300E4F0A3F090CA00C002C00312029D
:10195D00C0D003D002C002C00312036FD003D00267
:10196D0080757E007F00C3EE9410EF6480948050EC
:10197D0050C002C003C004C005C006C0071233CC5E
:10198D00A882A983D007D006D005D004D003D002F9
:10199D00900014C002C003C004C005C006C007C03B
:1019AD0000C0011202C0D001D000D007D006D00572
:1019BD00D004D003D002E84970070EBE00A80F80F6
:1019CD00A5C002C003C004C005122D54D005D0041B
:1019DD00D003D002021863EA4B60030216C69001D1
:1019ED00B57404F0E4A3F09003047401F09002FECA
:1019FD00E4F0A3F09002F8E4F0A3F0121D7FAA82A8
:101A0D008A037C009001C1EBF0A3ECF09001B7E4E8
:101A1D00F0A3F0EA2AFA24F3F582E43401F5837495
:101A2D00DEF0A3E4F0121D7FAA828A037C009001F0
:101A3D00D5EBF0A3ECF09001CBE4F0A3F0EA2AFA99
:101A4D0024F3F582E43401F58374DCF0A3E4F012A1
:101A5D001C8F7A007B00C3EA9410EB648094805055
:101A6D0030C002C00312263FAC82AD83D003D0023A
:101A7D00900014C002C003C004C0051202C0D005FE
:101A8D00D004D003D002EC4D70070ABA00C80B8009
:101A9D00C5900304E0FABA010A900304E4F0121DA4
:101AAD000380099003047401F0121D41121DAD90C5
:101ABD0001B7E0FAA3E0FBBA0736BB0033121D7F76
:101ACD00AA828A037C009001E9EBF0A3ECF090016F
:101ADD00DFE4F0A3F0EA2AFA24F3F582E43401F509
:101AED008374DDF0A3E4F09002F87401F0E4A3F048
:101AFD001223FAE5828583F09002FAF0A3E5F0F067
:101B0D001224B9E5828583F09002FCF0A3E5F0F094
:101B1D009002F8E0FAA3E0FBBA0113BB0010122506
:101B2D0080E5828583F09002FEF0A3E5F0F07A0067
:101B3D007B00C3EA9410EB648094805030C002C0E7
:101B4D000312263FAC82AD83D003D002900014C0A7
:101B5D0002C003C004C0051202C0D005D004D003DA
:101B6D00D002EC4D70070ABA00C80B80C59002FA7E
:101B7D00E0FAA3E0FBBAFE1DBBFF1A9002FAE4F0F7
:101B8D00A3F0900302E0FAA3E0FB90030274012A94
:101B9D00F0E43BA3F09002FCE0FAA3E0FBBAFE20D8
:101BAD00BBFF1D9002FCE4F0A3F0900302E0FAA34A
:101BBD00E0FB90030274012AF0E43BA3F0021C57F2
:101BCD009002FEE0FAA3E0FBBAFE24BBFF219002D7
:101BDD00FEE4F0A3F0900302E0FAA3E0FB90030211
:101BED0074012AF0E43BA3F09002F8E4F0A3F09026
:101BFD0002FAE0FAA3E0FBBAFD05BBFF02801E90DE
:101C0D0002FCE0FAA3E0FBBAFD05BBFF02800E90DB
:101C1D0002FEE0FAA3E0FBBAFD2ABBFF2712036F19
:101C2D0012046C900302E0FAA3E0FB8A828B83120C
:101C3D0005E0900302E4F0A3F090CA001202C01276
:101C4D00036F8006121DAD021A5F9002FAE0FAA32F
:101C5D00E0FBBAFD06BBFF030216C69002FCE0FADC
:101C6D00A3E0FBBAFD06BBFF030216C69002FEE021
:101C7D00FAA3E0FBBAFD05BBFF028003021A0802BE
:021C8D0016C679
:103771003C00420042003C003C00240042007E002C
:103781003C00420042003C003C00240042007E001C
:10379100F000F000F000F000000000000000000068
:1037A1000000000000000000F000F000F000F00058
:1037B100FF00FF00FF00FF00FF00FF00FF00FF0010
:1037C1003C002400FF00A500FF0024003C00000095
:1037D10000000000EE00EE0077007700000000001E
:1037E1000C003C003C0030000C003C003C00300070
:1037F1000C003C00FC00E8007800600000000000C4
:103801000C003C003E0016001F00070000000000F5
:103811000000000006001E0017003F003C003000C1
:1038210000000000E000F80068007C003C0030006F
:10383100000070009E00FE00FF009F00700000006D
:103841003C005A005A007E003C003C003C00300025
:1038510000000E00F900FF007F0079000E0000005B
:103861000C003C003C003C007E005A005A003C0029
:10387100000000002E00EE00F700370000000000FD
:10388100180018003C0030000C003C003C003000E7
:1038910000000000EC00EF00770074000000000061
:1038A1000C003C003C0030000C003C0018001800EB
:1038B100FF0081008100FF000000FF00FF00000009
:1038C100F100910091008F00910091009100FF00A3
:1038D1000F0008000800FF008F0091009100F10027
:1038E100FF0099009900F900110011001100FF007B
:1038F100FF0099009900FF001F0091009100FF0057
:101C8F007A007B00C3EA9410EB6480948050278A1B
:101C9F0004EBC454F0CCC4CC6CCC54F0CC6CFDEC45
:101CAF0024F3F582ED3401F5837467F0A3E4F00AB1
:101CBF00BA00D10B80CE7A007B00C3EA9410EB649C
:101CCF00809480502E8A04EBC454F0CCC4CC6CCCDE
:101CDF0054F0CC6CFDEC24F3FCED3401FD740E2CB0
:101CEF00F582E43DF5837467F0A3E4F00ABA00CA05
:101CFF000B80C7227A007B00C3EA9410EB648094B8
:101D0F0080502E8A04EBC454F0CCC4CC6CCC54F06D
:101D1F00CC6CFDEC24F3FCED3401FD74062CF58244
:101D2F00E43DF5837468F0A3E4F00ABA00CA0B80AF
:101D3F00C7227A007B00C3EA9410EB648094805032
:101D4F002E8A04EBC454F0CCC4CC6CCC54F0CC6CC5
:101D5F00FDEC24F3FCED3401FD74062CF582E43D1B
:101D6F00F5837469F0A3E4F00ABA00CA0B80C722A6
:101D7F00122731AA82AB839003277406F0E4A3F0F5
:101D8F008A828B83123533AA82AB830ABA0302800D
:101D9F00DFBA000280DABA070280D58A82227A007F
:101DAF007B00C3EA9408EB9400400122758240C087
:101DBF0002C0031202F3D003D002758240C002C0EA
:101DCF0003120331D003D00274B84AFC8B058C8206
:101DDF00C002C003C0041202F3D004D003D0028C9F
:101DEF0082C002C003120331D003D0028A04EBCCAD
:101DFF0025E0CC33FD7E007F00C3EE9410EF9400FE
:101E0F0040030223F28E00EFC454F0C8C4C868C860
:101E1F0054F0C868F9E824F3F8E93401F9EC28F52F
:101E2F0082ED39F583E0F8A3E0F9900305E8F0A31C
:101E3F00E9F0B8DE05B900028003021EF4C3EE9488
:101E4F0008EF9400505178007900C3E89408E994A2
:101E5F00004003021EF4C004C0058804EC2CFC9063
:101E6F00390193CCA393FD8C82C002C003C004C080
:101E7F0005C006C007C000C001120312D001D00078
:101E8F00D007D006D005D004D003D00208B8000187
:101E9F0009D005D00480B378007900C3E89408E92D
:101EAF0094005041C004C0058804EC2CFC9039010B
:101EBF0093CCA393FD8C82C002C003C004C005C0A5
:101ECF0006C007C000C001120350D001D000D007D8
:101EDF00D006D005D004D003D00208B8000109D035
:101EEF0005D00480B6900305E0F8A3E0F9B8DC054F
:101EFF00B900028003021FAFC3EE9408EF940050A5
:101F0F005178007900C3E89408E994004003021F58
:101F1F00AFC004C0058804EC2CFC90390193CCA30E
:101F2F0093FD8C82C002C003C004C005C006C00769
:101F3F00C000C001120312D001D000D007D006D0CC
:101F4F0005D004D003D00208B8000109D005D00491
:101F5F0080B378007900C3E89408E994005041C039
:101F6F0004C0058804EC2CFC90390193CCA393FD9D
:101F7F008C82C002C003C004C005C006C007C000E9
:101F8F00C001120350D001D000D007D006D005D029
:101F9F0004D003D00208B8000109D005D00480B6E0
:101FAF00900305E0F8A3E0F9B8DD05B9000280035E
:101FBF0002206AC3EE9408EF940050517800790024
:101FCF00C3E89408E99400400302206AC004C005E6
:101FDF008804EC2CFC90390193CCA393FD8C82C028
:101FEF0002C003C004C005C006C007C000C0011274
:101FFF000312D001D000D007D006D005D004D003F3
:10200F00D00208B8000109D005D00480B378007958
:10201F0000C3E89408E994005041C004C005880447
:10202F00EC2CFC90390193CCA393FD8C82C002C0A1
:10203F0003C004C005C006C007C000C00112035092
:10204F00D001D000D007D006D005D004D003D002E5
:10205F0008B8000109D005D00480B6900305E0F858
:10206F00A3E0F9487071C3EE9408EF9400503578EF
:10207F00087900758200C002C003C004C005C00605
:10208F00C007C000C001120312D001D000D007D08A
:10209F0006D005D004D003D00218B8FF0119E849C3
:1020AF0070D1803378087900758200C002C003C0F8
:1020BF0004C005C006C007C000C001120350D00104
:1020CF00D000D007D006D005D004D003D00218B866
:1020DF00FF0119E84970D1900305E0F8A3E0F9B8C2
:1020EF004C05B9000280030221A7C3EE9408EF94B8
:1020FF0000505478007900C3E89408E99400400335
:10210F000221A7C004C005880474082C25E0FC90A8
:10211F00390193CCA393FD8C82C002C003C004C0CD
:10212F0005C006C007C000C001120312D001D000C5
:10213F00D007D006D005D004D003D00208B80001D4
:10214F0009D005D00480B078007900C3E89408E97D
:10215F0094005044C004C005880474082C25E0FC8A
:10216F0090390193CCA393FD8C82C002C003C004AD
:10217F00C005C006C007C000C001120350D001D077
:10218F0000D007D006D005D004D003D00208B80085
:10219F000109D005D00480B3900305E0F8A3E0F95E
:1021AF00B86705B900028003022268C3EE9408EFF6
:1021BF009400505478007900C3E89408E9940040E3
:1021CF0003022268C004C005880474202C25E0FC9B
:1021DF0090390193CCA393FD8C82C002C003C0043D
:1021EF00C005C006C007C000C001120312D001D045
:1021FF0000D007D006D005D004D003D00208B80015
:10220F000109D005D00480B078007900C3E89408A4
:10221F00E994005044C004C005880474202C25E0C4
:10222F00FC90390193CCA393FD8C82C002C003C0F4
:10223F0004C005C006C007C000C001120350D00182
:10224F00D000D007D006D005D004D003D00208B8F4
:10225F00000109D005D00480B3900305E0F8A3E096
:10226F00F9B86805B900028003022329C3EE940868
:10227F00EF9400505478007900C3E89408E9940073
:10228F004003022329C004C005880474102C25E0E4
:10229F00FC90390193CCA393FD8C82C002C003C084
:1022AF0004C005C006C007C000C001120312D00150
:1022BF00D000D007D006D005D004D003D00208B884
:1022CF00000109D005D00480B078007900C3E894EC
:1022DF0008E994005044C004C005880474102C25EC
:1022EF00E0FC90390193CCA393FD8C82C002C00314
:1022FF00C004C005C006C007C000C001120350D003
:10230F0001D000D007D006D005D004D003D00208EA
:10231F00B8000109D005D00480B3900305E0F8A3FD
:10232F00E0F9B86905B9000280030223EAC3EE940D
:10233F0008EF9400505478007900C3E89408E994AA
:10234F000040030223EAC004C005880474182C253A
:10235F00E0FC90390193CCA393FD8C82C002C003A3
:10236F00C004C005C006C007C000C001120312D0D0
:10237F0001D000D007D006D005D004D003D002087A
:10238F00B8000109D005D00480B078007900C3E807
:10239F009408E994005044C004C005880474182CB4
:1023AF0025E0FC90390193CCA393FD8C82C002C031
:1023BF0003C004C005C006C007C000C0011203500F
:1023CF00D001D000D007D006D005D004D003D00262
:1023DF0008B8000109D005D00480B30EBE00010F6C
:1023EF00021E080ABA00010B021DB19001B7E0FAF4
:1023FF00A3E0FB9001C1E0FCA3E0FD74012AFEE421
:10240F003BFF9001B7EEF0A3EFF0C374109E748002
:10241F008FF063F08095F0500490FFFE22EFC454CC
:10242F00F0CEC4CE6ECE54F0CE6EFFEE24F3F8EFA6
:10243F003401F9EDCC25E0CC33FDEC28F582ED39F4
:10244F00F583E0F8A3E0F9B84C05B900028022EB60
:10245F00C454F0CAC4CA6ACA54F0CA6AFBEA24F365
:10246F00FAEB3401FBEC2AF582ED3BF583E4F0A3A4
:10247F00F0EE24F3FAEF3401FBEC2AF582ED3BF595
:10248F0083E0FAA3E0FBBA4C07BB000490FFFD22E8
:10249F00EE24F3FEEF3401FFEC2EF582ED3FF583D2
:1024AF0074DEF0A3E4F0900000229001CBE0FAA3D9
:1024BF00E0FB9001D5E0FCA3E0FD74012AFEE43BB4
:1024CF00FF9001CBEEF0A3EFF09001D5ECF0A3ED70
:1024DF00F0C374109E74808FF063F08095F05004F9
:1024EF0090FFFE22EFC454F0CEC4CE6ECE54F0CE89
:1024FF006EFFEE24F3F8EF3401F9EDCC25E0CC3389
:10250F00FDEC28F582ED39F583E0F8A3E0F9B84C3E
:10251F0005B900028022EBC454F0CAC4CA6ACA5477
:10252F00F0CA6AFBEA24F3FAEB3401FBEC2AF582DA
:10253F00ED3BF583E4F0A3F0EE24F3FAEF3401FB67
:10254F00EC2AF582ED3BF583E0FAA3E0FBBA4C07EA
:10255F00BB000490FFFD22EE24F3FEEF3401FFECED
:10256F002EF582ED3FF58374DCF0A3E4F0900000CC
:10257F00229001DFE0FAA3E0FB9001E9E0FCA3E089
:10258F00FD74012AFEE43BFF9001DFEEF0A3EFF0B4
:10259F00C374109E74808FF063F08095F050049098
:1025AF00FFFE22EFC454F0CEC4CE6ECE54F0CE6EEA
:1025BF00FFEE24F3F8EF3401F9EDCC25E0CC33FD39
:1025CF00EC28F582ED39F583E0F8A3E0F9B84C0576
:1025DF00B900028022EBC454F0CAC4CA6ACA54F0CC
:1025EF00CA6AFBEA24F3FAEB3401FBEC2AF582ED1D
:1025FF003BF583E4F0A3F0EE24F3FAEF3401FBECA8
:10260F002AF582ED3BF583E0FAA3E0FBBA4C07BB5A
:10261F00000490FFFD22EE24F3FEEF3401FFEC2EB9
:10262F00F582ED3FF58374DDF0A3E4F09000002216
:10263F009001B5E0FAA3E0FB900307EAF0A3EBF0FB
:10264F0020B537C374019AE49B400B9001B5740118
:10265F00F0E4A3F080241ABAFF011B9001B5EAF051
:10266F00A3EBF09001B5E0FAA3E0FBBA030CBB00BB
:10267F00099001B57402F0E4A3F020923E9001B5E9
:10268F00E0FAA3E0FBC3EA9406EB9400400B900141
:10269F00B57406F0E4A3F080229001B574012AF01E
:1026AF00E43BA3F09001B5E0FAA3E0FBBA030CBB47
:1026BF0000099001B57404F0E4A3F0900307E0FA69
:1026CF00A3E0FB9001B5E0FCA3E0FDEAB50406EB47
:1026DF00B505028032EBCA25E0CA33FBEA24E3F5E5
:1026EF0082EB3402F583E4F0A3F08C02EDCA25E00F
:1026FF00CA33FBEA24E3F582EB3402F583744CF022
:10270F00A3E4F090000122EDCC25E0CC33FDEC24C6
:10271F00E3F582ED3402F583744CF0A3E4F09000FE
:02272F00002286
:103901003C00420042003C003C00240042007E009A
:103911003C00420042003C003C00240042007E008A
:10392100F000F000F000F0000000000000000000D6
:103931000000000000000000F000F000F000F000C6
:10394100FF00FF00FF00FF00FF00FF00FF00FF007E
:103951003C002400FF00A500FF0024003C00000003
:1039610000000000EE00EE0077007700000000008C
:103971000C003C003C0030000C003C003C003000DE
:103981000C003C00FC00E800780060000000000032
:103991000C003C003E0016001F0007000000000064
:1039A1000000000006001E0017003F003C00300030
:1039B10000000000E000F80068007C003C003000DE
:1039C100000070009E00FE00FF009F0070000000DC
:1039D1003C005A005A007E003C003C003C00300094
:1039E10000000E00F900FF007F0079000E000000CA
:1039F1000C003C003C003C007E005A005A003C0098
:103A0100000000002E00EE00F7003700000000006B
:103A1100180018003C0030000C003C003C00300055
:103A210000000000EC00EF007700740000000000CF
:103A31000C003C003C0030000C003C001800180059
:103A4100FF0081008100FF000000FF00FF00000077
:103A5100F100910091008F00910091009100FF0011
:103A61000F0008000800FF008F0091009100F10095
:103A7100FF0099009900F900110011001100FF00E9
:103A8100FF0099009900FF001F0091009100FF00C5
:10273100900309E0FAA3E0FBA3E0FCA3E0FD900312
:1027410023746DF0A3744EF0A374C6F0A37441F02A
:102751008A828B838CF0ED1234C7AA82AB83ACF0F2
:10276100FD90030974392AF074303BA3F0E43CA3D3
:10277100F0E43DA3F0900309E0FAA3E0FBA3E0FC41
:10278100A3E0FD8C028D038A828B8322AA82AB8314
:10279100ACF0FD90030DEAF0A3EBF0A3ECF0A3ED98
:1027A100F090030DE0FAA3E0FBA3E0FCA3E0FD90B1
:1027B1000309EAF0A3EBF0A3ECF0A3EDF02212275A
:1027C10031E5828583F0540FFA7B00C002C0031209
:1027D1002731E5828583F0D003D0025407FC7D00C8
:1027E100EBC454F0CAC4CA6ACA54F0CA6AFBEA24E8
:1027F100F3FEEB3401FFEDCC25E0CC33FDEC2EF5FF
:1028010082ED3FF583E0FEA3E0FFBEDB05BF0002E2
:1028110080ACEA24F3FAEB3401FBEC2AF582ED3BC0
:10282100F5837403F0A3E4F022AA83E582900313F5
:10283100F0A3EAF0900311E0FAA3E0FB900313E0A8
:10284100FCA3E0FD7E007F00C002C0038E00EFC844
:1028510025E0C833F9E82423F582E93400F583E063
:10286100FAA3E0FBEAB50408EBB5050474018001A5
:10287100E4D003D0026019E824EBF582E93400F5D5
:1028810083E0F8A3E0F9E8B50206E9B503028007A1
:102891000EBE00B40F80B1EE4F600302296BC0027F
:1028A100C0038E0074012825E0F92423F582E43465
:1028B10000F583E0F50EA3E0F50F74012CFBE43D78
:1028C100FAE50EB50309E50FB5020474018001E4D0
:1028D100D003D002600490004022C006C0077401FA
:1028E1002825E0F92423F582E43400F583E0F9A3F7
:1028F100E0FE1CBCFF011DE9B50408EEB50504743A
:10290100018001E4D007D006600490005022C00687
:10291100C00774012825E0FC24EBF582E43400F5BE
:1029210083E0FCA3E0FD74012AF9E43BFEECB50170
:1029310008EDB5060474018001E4D007D0066004F7
:102941009000482208E828F824EBF582E43400F5E9
:1029510083E0FCA3E0FDEA24FFF8EB34FFF9ECB5DA
:102961000008EDB5010490003822900021E0FCA39D
:10297100E0FD1CBCFF011DEEB50406EFB5050280AC
:1029810003022A5BC002C0038E04EC1425E0FD247F
:1029910023F582E43400F583E0FDA3E0F89003130E
:1029A100E0F50EA3E0F50F7401250EF9E4350FFAF9
:1029B100EDB50108E8B5020474018001E4D003D04B
:1029C10002600490006022C006C007EC1425E0FDFF
:1029D1002423F582E43400F583E0FDA3E0F8E50E5D
:1029E10024FFF9E50F34FFFEEDB50108E8B5060453
:1029F10074018001E4D007D006600490007022C009
:102A010006C007EC1425E0FD24EBF582E43400F563
:102A110083E0FDA3E0F874012AF9E43BFEEDB50182
:102A210008E8B5060474018001E4D007D00660040B
:102A3100900068221CEC2CFC24EBF582E43400F5B8
:102A410083E0FCA3E0FDEA24FFF8EB34FFF9ECB5E9
:102A51000008EDB501049000582274012E25E0FC18
:102A61002423F582E43400F583E0FCA3E0FD900328
:102A710013E0FFA3E0F8ECB50723EDB5001FEE145A
:102A810025E0FC2423F582E43400F583E0FCA3E097
:102A9100FDECB50708EDB500049000082274012E85
:102AA10025E0FC24EBF582E43400F583E0FCA3E0AF
:102AB100FDECB50223EDB5031FEE1425E0FC24EB7C
:102AC100F582E43400F583E0FCA3E0FDECB50208F7
:102AD100EDB503049000102274012E25E0FC24239F
:102AE100F582E43400F583E0FCA3E0FD900313E0FC
:102AF100FFA3E0F80FBF000108ECB5072AEDB50010
:102B010026EE1425E0FC24EBF582E43400F583E0A5
:102B1100FCA3E0FD74012AFFE43BF8ECB50708EDE6
:102B2100B5000490003022EE1425E0FC2423F58248
:102B3100E43400F583E0FCA3E0FD900313E0FFA380
:102B4100E0F80FBF000108ECB5072BEDB5002774C5
:102B5100012E25E0FC24EBF582E43400F583E0FC52
:102B6100A3E0FD74012AFFE43BF8ECB50708EDB5DD
:102B710000049000302274012E25E0FC2423F5820C
:102B8100E43400F583E0FCA3E0FD900313E0FFA330
:102B9100E0F81FBFFF0118ECB5072AEDB50026EEDE
:102BA1001425E0FC24EBF582E43400F583E0FCA37A
:102BB100E0FD74012AFFE43BF8ECB50708EDB50030
:102BC1000490001822EE1425E0FC2423F582E4345D
:102BD10000F583E0FCA3E0FD900313E0FFA3E0F820
:102BE1001FBFFF0118ECB5072BEDB5002774012EAF
:102BF10025E0FC24EBF582E43400F583E0FCA3E05E
:102C0100FD74012AFFE43BF8ECB50708EDB50004BB
:102C11009000182274012E25E0FC2423F582E4346F
:102C210000F583E0FCA3E0FD900313E0FFA3E0F8CF
:102C31000FBF000108ECB5072BEDB50027EE1425F9
:102C4100E0FC24EBF582E43400F583E0FCA3E0FD35
:102C5100EA24FFFFEB34FFF8ECB50708EDB50004FB
:102C610090002822EE1425E0FC2423F582E43400B0
:102C7100F583E0FCA3E0FD900313E0FFA3E0F80F70
:102C8100BF000108ECB5072CEDB5002874012E2515
:102C9100E0FC24EBF582E43400F583E0FCA3E0FDE5
:102CA100EA24FFFFEB34FFF8ECB50708EDB50004AB
:102CB1009000282274012E25E0FC2423F582E434BF
:102CC10000F583E0FCA3E0FD900313E0FFA3E0F82F
:102CD1001FBFFF0118ECB5072BEDB50027EE14253A
:102CE100E0FC24EBF582E43400F583E0FCA3E0FD95
:102CF100EA24FFFFEB34FFF8ECB50708EDB500045B
:102D010090002022EE1425E0FC2423F582E4340017
:102D1100F583E0FCA3E0FD900313E0FFA3E0F81FBF
:102D2100BFFF0118ECB50727EDB500230EEE2EFE0F
:102D310024EBF582E43400F583E0FCA3E0FD1ABA4C
:102D4100FF011BECB50208EDB503049000202290B1
:102D51000008227A007B00C3EA9408EB940040014A
:102D610022758240C002C0031202F3D003D0027563
:102D71008240C002C003120331D003D00274B84AAA
:102D8100FC8B058C82C002C003C0041202F3D00484
:102D9100D003D0028C82C002C003120331D003D011
:102DA100028A048B058A0CEBC50C25E0C50C33F5B2
:102DB1000D78007900C3E89410E9940040030230D3
:102DC1000EC004C0058804E9C454F0CCC4CC6CCC5A
:102DD10054F0CC6CFDEC24F3FCED3401FDE50C2C3E
:102DE100F582E50D3DF583E0FCA3E0FD900315ECD4
:102DF100F0A3EDF0E4BCDB04BD000104D005D00478
:102E01007003022ECF900311ECF0A3EDF0888289BC
:102E110083C002C003C004C005C000C00112282A3B
:102E2100858208858309D001D000D005D004D00364
:102E3100D002C3E89408E99400504BE4F50AF50B7D
:102E4100C3E50A9408E50B94004003022ECFAE08B7
:102E5100E50AFF2E25E0FE903AE193CEA393FF8E83
:102E610082C002C003C004C005C000C00112031229
:102E7100D001D000D005D004D003D002050AE4B5BA
:102E81000ABE050B80BAE4F50AF50BC3E50A9408FE
:102E9100E50B94005038AE08E50AFF2E25E0FE90C0
:102EA1003AE193CEA393FF8E82C002C003C004C057
:102EB10005C000C001120350D001D000D005D004DC
:102EC100D003D002050AE4B50AC1050B80BD900309
:102ED10015E0FEA3E0FF4E7071C3E89408E9940089
:102EE10050357E087F00758200C002C003C004C057
:102EF10005C006C007C000C001120312D001D000F6
:102F0100D007D006D005D004D003D0021EBEFF01E9
:102F11001FEE4F70D180337E087F00758200C002A2
:102F2100C003C004C005C006C007C000C001120331
:102F310050D001D000D007D006D005D004D003D0A6
:102F4100021EBEFF011FEE4F70D1900315E0FEA3DC
:102F5100E0FFBE0305BF00028003023006C3E89410
:102F610008E9940050517E007F00C3EE9408EF946D
:102F7100004003023006C004C0058E04EC2CFC9016
:102F81003AE193CCA393FD8C82C002C003C004C07C
:102F910005C006C007C000C001120312D001D00055
:102FA100D007D006D005D004D003D0020EBE000158
:102FB1000FD005D00480B37E007F00C3EE9408EFEC
:102FC10094005041C004C0058E04EC2CFC903AE101
:102FD10093CCA393FD8C82C002C003C004C005C082
:102FE10006C007C000C001120350D001D000D007B5
:102FF100D006D005D004D003D0020EBE00010FD000
:1030010005D00480B608B8000109022DB60ABA003D
:10301100010B022D58900021E0FAA3E0FB8A041C69
:10302100EC2CFC2423F582E43400F583E0F514A3B1
:10303100E0F515EC24EBF582E43400F583E0FCA324
:10304100E0FF9000EBE0F8A3E0F9900023E0F50E3B
:10305100A3E0F50F751002E4F511C3E5109AE5112F
:103061009B5065C004C007E51025E0FDE51133FE66
:10307100ED2423F582EE3400F583E0FCA3E0FFE5C7
:103081000EB50409E50FB5070474018001E4D0070A
:10309100D004602AC004C007ED24EBF582EE3400B1
:1030A100F583E0FCA3E0FFE8B50408E9B507047483
:1030B100018001E4D007D004600490FFFF220510D5
:1030C100E4B5109605118092EA24FFFDEB34FFFE72
:1030D1008D128E13E512451360047D0180027D007F
:1030E100ED6069C004C007E51225E0FCE51333FF7C
:1030F100EC2423F510EF3400F511AD121DED2DF583
:1031010016E5162423F582E43400F583E0FEA3E0FE
:10311100FD851082851183EEF0A3EDF0EC24EBFC2C
:10312100EF3400FFE51624EBF582E43400F583E08B
:10313100FDA3E0FE8C828F83EDF0A3EEF0151274F7
:10314100FFB512021513D007D0048088900317E54C
:103151000EF0A3E50FF0900319E8F0A3E9F0900158
:10316100B3E0FDA3E0FEBD0005BE00028018BD0175
:1031710005BE00028022BD0205BE00028029BD03FA
:1031810045BE0042802EE824FFFDE934FFFE900396
:1031910019EDF0A3EEF0802E9003177401250EF0C7
:1031A100E4350FA3F0801F900319740128F0E4396E
:1031B100A3F08012E50E24FFFDE50F34FFFE90031E
:1031C10017EDF0A3EEF0900317E0FDA3E0FE9000F1
:1031D10023EDF0A3EEF0900319E0F8A3E0F99000DD
:1031E100EBE8F0A3E9F0EE30E70490FFFF22E930CD
:1031F100E70490FFFF22C3ED9410EE6480948040B9
:103201000490FFFF22C3E89408E96480948040049D
:1032110090FFFF227D027E00C3ED9AEE9B5077C0A6
:1032210004C007900023E0F8A3E0F98D12EEC51267
:1032310025E0C51233F513E5122423F582E5133495
:1032410000F583E0FCA3E0FFE8B50408E9B5070455
:1032510074018001E4D007D0046034C004C0079039
:1032610000EBE0F8A3E0F9E51224EBF582E5133475
:1032710000F583E0FCA3E0FFE8B50408E9B5070425
:1032810074018001E4D007D004600490FFFF220D97
:10329100BD00850E8082900317E0FDA3E0FEC454BB
:1032A100F0CDC4CD6DCD54F0CD6DFEED24F3FDEE2A
:1032B1003401FE900319E0F8A3E0F9C825E0C83312
:1032C100F9E82DF582E93EF583E0FDA3E0FEBD03BB
:1032D10005BE0002802EAD14E515C454F0CDC4CD59
:1032E1006DCD54F0CD6DFEED24F3FDEE3401FE8C79
:1032F10000EFC825E0C833F9E82DF582E93EF583F2
:10330100E4F0A3F0C004C007900317E0FDA3E0FEC2
:10331100C454F0CDC4CD6DCD54F0CD6DFEED24F38C
:10332100F8EE3401F9900319E0FCA3E0FF8C12C51B
:103331001225E0C51233F513E51228F582E513399C
:10334100F583E0FCA3E0FFE4BC0304BF000104D06B
:1033510007D004605A8A00EBC825E0C833F9E82495
:1033610023F582E93400F583E514F0A3E515F0E8CF
:1033710024EBF582E93400F583ECF0A3EFF0900043
:103381002174012AF0E43BA3F0ED24F3FAEE3401B9
:10339100FBE5122AFAE5133BFB8A828B83E4F0A357
:1033A100F08A828B8374DBF0A3E4F090000222EDBB
:1033B10024F3FDEE3401FEE5122DF582E5133EF511
:1033C1008374DBF0A3E4F0900000229001B3E0FAF3
:1033D100A3E0FB90031BEAF0A3EBF020B5079001FB
:1033E100B3E4F0A3F020B4099001B37401F0E4A3B5
:1033F100F02092099001B37402F0E4A3F020930944
:103401009001B37403F0E4A3F090031BE0FAA3E08E
:10341100FB9001B3E0FCA3E0FDEAB50406EBB505C2
:0B3421000280049000012290000022B5
:103A91003C00420042003C003C00240042007E0009
:103AA1003C00420042003C003C00240042007E00F9
:103AB100F000F000F000F000000000000000000045
:103AC1000000000000000000F000F000F000F00035
:103AD100FF00FF00FF00FF00FF00FF00FF00FF00ED
:103AE1003C002400FF00A500FF0024003C00000072
:103AF10000000000EE00EE007700770000000000FB
:103B01000C003C003C0030000C003C003C0030004C
:103B11000C003C00FC00E8007800600000000000A0
:103B21000C003C003E0016001F00070000000000D2
:103B31000000000006001E0017003F003C0030009E
:103B410000000000E000F80068007C003C0030004C
:103B5100000070009E00FE00FF009F00700000004A
:103B61003C005A005A007E003C003C003C00300002
:103B710000000E00F900FF007F0079000E00000038
:103B81000C003C003C003C007E005A005A003C0006
:103B9100000000002E00EE00F700370000000000DA
:103BA100180018003C0030000C003C003C003000C4
:103BB10000000000EC00EF0077007400000000003E
:103BC1000C003C003C0030000C003C0018001800C8
:103BD100FF0081008100FF000000FF00FF000000E6
:103BE100F100910091008F00910091009100FF0080
:103BF1000F0008000800FF008F0091009100F10004
:103C0100FF0099009900F900110011001100FF0057
:103C1100FF0099009900FF001F0091009100FF0033
:10342C00AA83E58290031FF0A3EAF0900321E4F055
:10343C00A3F090031DE0FAA3E0FB7C1090031FE0C7
:10344C00FDA3E0FE339200EECD25E0CD33FE9003DC
:10345C001FEDF0A3EEF0900321E0FDA3E0FECD25DF
:10346C00E0CD33FE900321EDF0A3EEF0300012908E
:10347C000321E0FDA3E0FE90032174014DF0A3EEC7
:10348C00F0900321E0FDA3E0FEC3ED9AEE9B401DFE
:10349C00900321EDC39AF0EE9BA3F090031FE0FD87
:1034AC00A3E0FE90031F74014DF0A3EEF0DC8D90B1
:0B34BC00031FE0FAA3E08A82F58322E0
:06003200E478FFF6D8FDA2
:100010007900E94400601B7A00903C21782C75A09F
:1000200003E493F2A308B8000205A0D9F4DAF2754C
:02003000A0FF2F
:1034C700A882A983AAF0FB88F0900323E0A4FCADAF
:1034D700F089F0E0A42DFDE435F0FE88F0A3E0A428
:1034E7002DFDE5F03EFEE433FF89F0E0A42EFEE576
:1034F700F03FFF88F0A3E0A42EFEE5F03FFF8AF03F
:10350700900323E0A42EFEE5F03FFF8BF0E0A42F0D
:10351700FF8AF0A3E0A42FFF89F0A3E0A42FFF8880
:10352700F0A3E0A42F8EF08D838C8222AA83E582FC
:10353700900329F0A3EAF090032BE4F0900329E02D
:10354700FAA3E0FB7C00900327E0FDA3E0FE2354F1
:1035570001FF7037EECD25E0CD33FE900327EDF068
:10356700A3EEF0900327E0FDA3E0FEC3EA9DEB9EE8
:103577005011EEC313CD13CDFE900327EDF0A3EE4C
:10358700F080080C90032BECF080BB90032BE0FA43
:10359700900329E0FBA3E0FC900327E0FDA3E0FEF6
:1035A700C3EB9DEC9E400B900329EBC39DF0EC9E73
:1035B700A3F0900327E0FBA3E0FCC313CB13CBFCE2
:1035C700900327EBF0A3ECF08A031AEB70C2900389
:0A35D70029E0FAA3E08A82F58322BE
:100038007800E84400600A790075A000E4F309D864
:10004800FC782CE84403600C7904900000E4F0A3E9
:04005800D8FCD9FAFD
:0D000300758120121682E582600302167DD1
:00000001FF
